:0400000026EF00F0F7
:100008005782FACF2DF0FBCF2EF0F2AC0EEF00F0B6
:1000180010EF00F020EF00F09DA015EF00F017EFB3
:1000280000F020EF00F09EA01CEF00F01EEF00F0A3
:1000380020EF00F01BEC02F02EC0FBFF2DC0FAFFF2
:100048005792110055EF02F0410E4A6E000E4C6EA9
:10005800DBEC02F0F28EF28CDC0E2F6E040E306EAA
:100068001EEC03F0C68A898A3AEF00F02804D8A467
:1000780040EF00F042EF00F03AEF00F0FDEC02F044
:100088000009D8B44AEF00F04CEF00F01EEF01F081
:1000980097EC02F04B6E2B0E4B18D8A456EF00F0DD
:1000A80058EF00F065EF00F04C2A030E4C645FEF48
:1000B80000F061EF00F0BFEF00F0040E4C6EBFEFF0
:1000C80000F02D0E4B18D8A46CEF00F06EEF00F086
:1000D8007BEF00F04C064C50D8A475EF00F077EF9A
:1000E80000F07FEF00F0000E4C6EBFEF00F04BC049
:1000F8004AF0BFEF00F0BFEF00F0EF0E566EB90EFA
:10010800556ED70E456E7F0E466EBFEC02F0000EA0
:10011800286E3AEF00F0F70E566EDD0E556EDE0EC5
:10012800456E7F0E466EBFEC02F08BEF00F0FA0EC4
:10013800566E900E556EE50E456E7F0E466EBFEC00
:1001480002F08BEF00F0FB0E566EEE0E556EEC0EC5
:10015800456E7F0E466EBFEC02F08BEF00F0FC0E92
:10016800566EBF0E556ECF0E456E7F0E466EBFECB7
:1001780002F08BEF00F04C50486E496A4950000A73
:10018800D8B4C9EF00F03AEF00F04850000AD8B4EC
:1001980081EF00F0010AD8B48FEF00F0030AD8B459
:1001A8009BEF00F0010AD8B4A7EF00F0070AD8B413
:1001B800B3EF00F03AEF00F0770E2924F66EF76AF5
:1001C8007F0EF7220800F550F3EC02F0F70E456EAB
:1001D8007F0E466EBFEC02F08BEF00F03B0E292439
:1001E800F66EF76A7F0EF7220800F550F3EC02F07E
:1001F800F30E456E7F0E466EBFEC02F08BEF00F0FB
:10020800FF0E2924F66EF76A7E0EF7220800F550D5
:10021800F3EC02F0FB0E456E7F0E466EBFEC02F06B
:100228008BEF00F0B70E456E7F0E466EBFEC02F006
:100238003AEF00F04A50486E496A4950000AD8B46B
:1002480028EF01F016EF01F04850630AD8B4F2EF36
:1002580000F0100AD8B4E0EF00F0070AD8B404EFB1
:1002680001F016EF01F026EF00F033503410D8B447
:1002780040EF01F042EF01F04BEF01F03350341042
:10028800D8A449EF01F04BEF01F050EF01F03150E5
:1002980019EC03F09DEF01F020EE0AF03350D92657
:1002A8003450DA22DE50DE10D8B45DEF01F05FEF93
:1002B80001F07AEF01F020EE0AF03350D9263450DD
:1002C800DA2210EE03F03350E1263450E222DE50F9
:1002D800E65CE650800A396EDE50800A3958D8B09C
:1002E80078EF01F07AEF01F09DEF01F020EE03F0D6
:1002F8003350D9263450DA22DECF35F0DDCF36F050
:1003080033C0D9FF34C0DAFFDECF37F0DDCF38F0A5
:1003180035503724D96E36503820DA6E31C0DFFFB9
:1003280020EE03F03350D9263450DA22DE2A000EAC
:10033800DD2212003C50D96EDA6ADECFF6FFDDCF3F
:10034800F7FF0800F550250AD8A4ADEF01F0AFEF8C
:1003580001F0C5EF01F03C50D96EDA6ADE2A000ED2
:10036800DD22000E226E000E216E21C027F02368C8
:1003780024683C50D96EDA6ADE2A000EDD22D8EFF6
:1003880001F03C50D96EDA6ADECFF6FFDDCFF7FF19
:100398000800F550316E326A3AC033F03BC034F091
:1003A80039EC01F0BDEF01F0120040C043F041C04C
:1003B80044F0E9EF01F03EC03AF03FC03BF0430E95
:1003C8003C6E42C03DF09EEC01F043C0F6FF44C0D5
:1003D800F7FF0800F5500009D8A4F5EF01F0F7EF92
:1003E80001F0DFEF01F0000E3F6E000E3E6E1200CE
:1003F800080EA76E900EAB6E240EAC6E080EAF6E94
:10040800020E7D6E000E2F6E000E306E28EC03F08B
:10041800000E2F6E000E306E23EC03F0000E2F6ED0
:10042800000E306E2DEC03F0000E2A6E12009E9026
:1004380025C02BF026C02CF0ABEC02F04D504E102E
:10044800D8B429EF02F02BEF02F038EF02F002D80F
:1004580038EF02F00500FA6E4D50FD6E4E50FE6EFC
:10046800F850FF6EFA5012001200000EAA6EEF0E3E
:10047800CF6EB90ECE6E9E90CE50CFCF31F0326A8D
:1004880031C032F0316A3110256E3250266E9D80AF
:100498006A0E2F6E060E306E1EEC03F0010ECD6E46
:1004A8001200680EF66E060EF76E000EF86E090062
:1004B800F5CF55F00900F5CF56F000EE01F02A0E01
:1004C800EE6AE806FDE157905792000EF86E0001BB
:1004D80028EF00F055C02BF056C02CF0ABEC02F022
:1004E800010E286E292A3C0E2918D8A47EEF02F0A6
:1004F80080EF02F082EF02F0000E296E1200000E6B
:10050800896E000E8A6E000E8B6ECF0E926E936807
:10051800970E946E1F0E0F015D6F070E5C6F000E35
:100528005B6FF18E12009EAA9CEF02F09EEF02F024
:1005380097EF02F0000E2A6EABA2A5EF02F0A7EF2C
:1005480002F0A9EF02F0AB98AB88AE501200CDA430
:10055800B0EF02F0B2EF02F0BAEF02F0CD902C50FB
:10056800CF6E2BC0CEFFCD80BEEF02F02C50CF6EE9
:100578002BC0CEFF1200470E476E000E3E6E000ED7
:100588003F6E45C040F046C041F0470E426ED9EC80
:1005980001F012002F6E2FC0C9FF9EA6D6EF02F001
:1005A800D8EF02F0D1EF02F09E96C950120032EC5B
:1005B80003F007EC03F083EC02F010EC03F039ECE5
:1005C80002F0FCEC01F012002F6E9EA8EEEF02F094
:1005D800F0EF02F0E9EF02F02FC0ADFF1200306E2D
:1005E800899A110ECEEC02F03050CEEC02F0898AD6
:1005F80012009EBA02EF03F005EF03F0010E06EFBA
:1006080003F0000E1200400EC76E020EC66E010EF9
:10061800C86E9496C69A1200600ED36E000ED26E03
:10062800000E9B6E000E9A6E1200306E3050E8EC91
:1006380002F012002FC04DF030C04EF012002FC053
:1006480051F030C052F012002FC053F030C054F0B7
:1006580012002FC04FF030C050F01200D09E120090
:04066800B9EF1200D4
:107EFE000009111A222B333C444D555E666F778074
:107F0E00889199A2AAB3BBC4CCD5DDE6EEF7FFF7F4
:107F1E00EEE6DDD5CCC4BBB3AAA299918880776F6B
:107F2E00665E564D443C332B221A110900000000A8
:107F3E000000000000000000000000000000000033
:107F4E000000000000000000000000FFFFFFFFFF28
:107F5E00FFFFFFFFFFFFFFFFFFFFFFFFFFFFFFFF23
:107F6E00FFFFFFFFFFFFFFFFFFFEFEFCF9F4EEE752
:107F7E00DED5CABFB3A79A8D7F7265584C40352A9D
:107F8E002118110B060301000103060B1118212AFB
:107F9E0035404C586572808D9AA7B3BFCAD5DEE7BF
:107FAE00EEF4F9FCFE024001000A0D496E70757484
:107FBE00206F6E6465206176656320732C632C746C
:107FCE00000A0D313030487A000A0D3230487A00FE
:107FDE000A0D3430487A000A0D3630487A000A0D00
:107FEE003830487A000A0D63000A0D73000A0D74CA
:027FFE00000081
:020000040020DA
:08000000FFFFFFFFFFFFFFFF00
:020000040030CA
:0E00000015027F50FF8991FF0FC00FE00F40E7
:00000001FF
