:0400000036EF00F0E7
:100008005782FACF03F0FBCF04F0F6CF05F0F7CF15
:1000180006F0F8CF07F0F5CF08F0F2AC16EF00F0D5
:1000280018EF00F028EF00F09DA01DEF00F01FEF83
:1000380000F028EF00F09EA024EF00F026EF00F07B
:1000480028EF00F038EC14F008C0F5FF07C0F8FFFF
:1000580006C0F7FF05C0F6FF04C0FBFF03C0FAFFA8
:1000680057921100C7EF14F0000E0001986F72C08C
:1000780099F073C09AF074C09BF075C09CF09CBF57
:100088004AEF00F048EF00F05EEF00F0010E986FC5
:1000980099C009F09AC00AF09BC00BF09CC00CF004
:1000A8008FEC14F009C099F00AC09AF00BC09BF0CD
:1000B8000CC09CF0000E00019E6F000E9D6FCDC01D
:1000C80088F0CEC089F09851D8B46DEF00F06FEF8A
:1000D80000F083EF00F09851D8A475EF00F077EFA7
:1000E80000F07DEF00F0000E7E6F2B0E7D6F81EF2C
:1000F80000F0000E7E6F2D0E7D6F7DC098F099C0C8
:1001080009F09AC00AF09BC00BF09CC00CF098EC68
:1001180010F009040A10D8A494EF00F096EF00F04C
:10012800C9EF00F000019851D8B49DEF00F09FEF9F
:1001380000F0A8EF00F098C000F18807D8A0890760
:10014800000E9E6F010E9D6F000E9D25096E010E1B
:100158009E210A6EF60E0B6E7F0E0C6E73EC14F079
:100168000001FD0E8827FF0E892370C01BF071C0A7
:100178001CF0000E1D6E010E1E6E88C01FF089C097
:1001880020F0A1EC12F033EF05F099C009F09AC005
:100198000AF09BC00BF09CC00CF098EC10F00950D2
:1001A8000A10D8A4DAEF00F0DCEF00F0FCEF00F062
:1001B80000019851D8B4E3EF00F0E5EF00F0EEEF5E
:1001C80000F098C000F18807D8A08907000E9E6F3C
:1001D800010E9D6F000E9D25096E010E9E210A6E6F
:1001E800FA0E0B6E7F0E0C6E73EC14F0B4EF00F089
:1001F800000E00019F6F000EA06F800EA16F3F0ED2
:10020800A26F000E876F000E866F99C009F09AC022
:100218000AF09BC00BF09CC00CF0000E0D6E000E97
:100228000E6E000E0F6E000E106E4CEC12F0D8B071
:1002380020EF01F022EF01F001EF02F02FEF01F0C3
:100248008AC09FF08BC0A0F08CC0A1F08DC0A2F036
:100258000001864B872B9FC017F0A0C018F0A1C0E3
:1002680019F0A2C01AF0000E1B6E000E1C6E200EB4
:100278001D6E410E1E6E94EC07F017C08AF018C070
:100288008BF019C08CF01AC08DF000018A51995D6D
:10029800096E8B519A590A6E8C519B590B6E8D5170
:1002A8009C590C6E5CEC13F00CBE66EF01F00C5020
:1002B8000B100A1009E1020E095CD8A066EF01F0E4
:1002C80068EF01F024EF01F08AC030F08BC031F004
:1002D8008CC032F08DC033F099C034F09AC035F03C
:1002E8009BC036F09CC037F016EC10F0D8A07FEF1A
:1002F80001F081EF01F024EF01F000019F51995DB9
:10030800096EA0519A590A6EA1519B590B6EA251C0
:100318009C590C6E5CEC13F00CBEA0EF01F00C5075
:100328000B100A1007E1020E095CD8B09EEF01F02D
:10033800A0EF01F0E8EF01F09FC099F0A0C09AF09B
:10034800A1C09BF0A2C09CF001EF02F09FC030F06A
:10035800A0C031F0A1C032F0A2C033F0000E346E5C
:10036800000E356E200E366E410E376EA9EC09F080
:1003780030C09FF031C0A0F032C0A1F033C0A2F06D
:1003880000018607D8A087079F51995D096EA05183
:100398009A590A6EA1519B590B6EA2519C590C6E29
:1003A8005CEC13F00CBEE6EF01F00C500B100A10D9
:1003B80007E1020E095CD8B0E4EF01F0E6EF01F0C6
:1003C800E8EF01F0A0EF01F099C030F09AC031F0E9
:1003D8009BC032F09CC033F09FC034F0A0C035F011
:1003E800A1C036F0A2C037F016EC10F0D8A0FFEF8D
:1003F80001F001EF02F0AAEF01F076C080F080C0B2
:1004080081F00001D0BF0BEF02F00DEF02F013EF07
:1004180002F0CFC079F0D0C07AF017EF02F0000EEA
:100428007A6F060E796F79C084F07AC085F0844BB4
:10043800852B660E8119D8A424EF02F026EF02F06E
:1004480046EF02F087BF2DEF02F02BEF02F039EFF5
:1004580002F0000E9F6F000EA06F800EA16F3F0E7E
:10046800A26F000E876F000E866F670E8019D8B4D2
:1004780040EF02F042EF02F046EF02F08651842787
:1004880087518523000E8F6F000E8E6F99C090F0F4
:100498009AC091F09BC092F09CC093F09FC08AF0E4
:1004A800A0C08BF0A1C08CF0A2C08DF0D7EF02F0F5
:1004B80090C030F091C031F092C032F093C033F068
:1004C8009FC034F0A0C035F0A1C036F0A2C037F00C
:1004D800A9EC09F030C049F031C04AF032C04BF005
:1004E80033C04CF0FCEC0CF049C094F04AC095F0D5
:1004F8004BC096F04CC097F094C009F095C00AF034
:1005080096C00BF097C00CF093EC0FF009C082F086
:100518000AC083F090C030F091C031F092C032F040
:1005280093C033F094C01BF095C01CF096C01DF02A
:1005380097C01EF09FC017F0A0C018F0A1C019F016
:10054800A2C01AF094EC07F017C034F018C035F0C8
:1005580019C036F01AC037F0D4EC13F030C090F060
:1005680031C091F032C092F033C093F09FC030F0A8
:10057800A0C031F0A1C032F0A2C033F0000E346E3A
:10058800000E356E200E366E410E376EA9EC09F05E
:1005980030C09FF031C0A0F032C0A1F033C0A2F04B
:1005A80000018E4B8F2B84518E5D8F51800A4D6ECA
:1005B8008551800A4D58D8A0E4EF02F0E6EF02F02A
:1005C8005CEF02F09FC017F0A0C018F0A1C019F0AE
:1005D800A2C01AF0000E1B6E000E1C6EA00E1D6E3F
:1005E800400E1E6E94EC07F017C094F018C095F0FA
:1005F80019C096F01AC097F090C030F091C031F051
:1006080092C032F093C033F094C034F095C035F006
:1006180096C036F097C037F016EC10F0D8B017EF48
:1006280003F019EF03F024EF03F0000E0001946FBC
:10063800000E956F000E966F000E976F4DEF03F04A
:1006480090C009F091C00AF092C00BF093C00CF072
:1006580094C00DF095C00EF096C00FF097C010F042
:100668004CEC12F0D8A03BEF03F03DEF03F04DEF58
:1006780003F0000182B143EF03F045EF03F04DEFC3
:1006880003F0000E946F000E956F000E966F000E2B
:10069800976F99C009F09AC00AF09BC00BF09CC0F4
:1006A8000CF094C00DF095C00EF096C00FF097C0F6
:1006B80010F034EC05F009C090F00AC091F00BC0BE
:1006C80092F00CC093F090C030F091C031F092C01D
:1006D80032F093C033F0000E1B6E000E1C6E200E1D
:1006E8001D6E410E1E6E8AC017F08BC018F08CC0AC
:1006F80019F08DC01AF094EC07F017C034F018C048
:1007080035F019C036F01AC037F016EC10F0D8A042
:1007180090EF03F092EF03F0BBEF03F00001864B7C
:10072800872B8AC017F08BC018F08CC019F08DC0C9
:100738001AF0000E1B6E000E1C6E200E1D6E410E70
:100748001E6E94EC07F017C08AF018C08BF019C021
:100758008CF01AC08DF0660E00018119D8A4B7EF8D
:1007680003F0B9EF03F0BBEF03F0844B852B8AC08D
:100778009FF08BC0A0F08CC0A1F08DC0A2F086C005
:1007880077F087C078F0000E00017F6F000E7C6F55
:10079800000E7B6F000E8F6F000E8E6FB9EF04F0A6
:1007A80090C030F091C031F092C032F093C033F075
:1007B8009FC034F0A0C035F0A1C036F0A2C037F019
:1007C800A9EC09F030C049F031C04AF032C04BF012
:1007D80033C04CF0FCEC0CF049C094F04AC095F0E2
:1007E8004BC096F04CC097F094C009F095C00AF041
:1007F80096C00BF097C00CF093EC0FF00ABE10EF08
:1008080004F00A5007E10A0E095CD8B00EEF04F0B4
:1008180010EF04F020EF04F094C009F095C00AF03E
:1008280096C00BF097C00CF093EC0FF009C082F063
:100838000AC083F025EF04F0000E0001836F090E53
:10084800826F00017F51D8A42CEF04F02EEF04F042
:1008580056EF04F078BF35EF04F033EF04F056EFAD
:1008680004F0000E9D25D96E010E9E21DA6E2E0E23
:10087800DF6E9D4B9E2B8807D8A08907010E7F6FDE
:1008880056EF04F0000E9D25D96E010E9E21DA6EFA
:10089800300EDF6E9D4B9E2B8807D8A089077B07FB
:1008A800D8A07C077B517C11D8A45DEF04F05FEFE2
:1008B80004F046EF04F0000E9D25D96E010E9E212E
:1008C800DA6E8251300FDF6E9D4B9E2B8807D8A0C1
:1008D800890790C030F091C031F092C032F093C0D7
:1008E80033F094C01BF095C01CF096C01DF097C063
:1008F8001EF09FC017F0A0C018F0A1C019F0A2C048
:100908001AF094EC07F017C034F018C035F019C08D
:1009180036F01AC037F0D4EC13F030C090F031C084
:1009280091F032C092F033C093F09FC030F0A0C075
:1009380031F0A1C032F0A2C033F0000E346E000EC8
:10094800356E200E366E410E376EA9EC09F030C0B8
:100958009FF031C0A0F032C0A1F033C0A2F0000176
:100968007707D8A078078E4B8F2B84518E5D8F51D7
:10097800800A4D6E8551800A4D58D8B0C6EF04F0F4
:10098800C8EF04F0D6EF04F09EBFD4EF04F09E51F8
:1009980009E14B0E9D5DD8A0D4EF04F0D6EF04F02A
:1009A800D4EF03F0000E8F6F4F0E8E6F000E8E2562
:1009B800D96E010E8F21DA6EDF6A000E4D6E010EC0
:1009C8004E6E9D514D5E9E514E5A8E514D24096E6C
:1009D8008F514E200A6E000E0B6E010E0C6E9DC0DC
:1009E8000DF09EC00EF087EC13F000019D518E5D56
:1009F8009D6F9E518F599E6F9851D8A406EF05F0B0
:100A080009EF05F0010E0AEF05F0000E8E6F8F6BEF
:100A18009851D8B412EF05F014EF05F01FEF05F068
:100A28009D07D8A09E07000E9D25D96E010E9E2118
:100A3800DA6E98C0DFFF8E51885F8F51895B70C076
:100A48001BF071C01CF0000E9D251D6E010E9E212D
:100A58001E6E88C01FF089C020F0A1EC12F01200B1
:100A68000C50800B156E0C500C24176E0BAE3FEF1C
:100A780005F041EF05F042EF05F017801750D8B4A4
:100A880048EF05F04AEF05F05FEF05F01728D8A406
:100A980050EF05F052EF05F05AEF05F0000E096E21
:100AA800000E0A6E000E0B6E000E0C6E0B8E000E02
:100AB8000C6E67EF05F0000E096E000E0A6E000E50
:100AC8000B6E000E0C6E1050800B166E155016181B
:100AD800D8B471EF05F073EF05F074EF05F0158CDD
:100AE80010501024166E0FAE7CEF05F07EEF05F067
:100AF8007FEF05F016801650D8B485EF05F087EF24
:100B080005F09CEF05F01628D8A48DEF05F08FEFBF
:100B180005F097EF05F0000E0D6E000E0E6E000E3C
:100B28000F6E000E106E0F8E000E106EA4EF05F003
:100B3800000E0D6E000E0E6E000E0F6E000E106E83
:100B48001750165CD8B0ABEF05F0ADEF05F0D4EF59
:100B580005F015ACB2EF05F0B4EF05F0B6EF05F00F
:100B6800800E151A17C018F016C017F018C016F026
:100B780009C018F00DC009F018C00DF00AC018F02F
:100B88000EC00AF018C00EF00BC018F00FC00BF022
:100B980018C00FF00CC018F010C00CF018C010F0FE
:100BA800000E186E175016C011F0126A115E000E72
:100BB800125A12BEE9EF05F0125009E11A0E115C43
:100BC800D8A0E9EF05F0EBEF05F022EF06F00950A9
:100BD8000A100B100C10D8A4F4EF05F0F7EF05F08D
:100BE800010EF8EF05F0000E186E000E096E000EEB
:100BF8000A6E000E0B6E000E0C6E16C017F02BEF6F
:100C080006F018A00AEF06F00CEF06F012EF06F057
:100C1800D89018300109186E14EF06F0D8901832E1
:100C280009A019EF06F01BEF06F01CEF06F0188E6E
:100C38000C340C320B320A320932172A1650175C60
:100C4800D8A029EF06F02BEF06F005EF06F015BC4B
:100C580030EF06F032EF06F072EF06F01750D8A426
:100C680038EF06F03AEF06F044EF06F0000E096E92
:100C7800000E0A6E000E0B6E000E0C6E93EF07F05E
:100C88000D5009260E500A220F500B2210500C222C
:100C98000CA051EF06F053EF06F0FFEF06F018A096
:100CA80058EF06F05AEF06F060EF06F0D8901830CB
:100CB8000109186E62EF06F0D890183209A067EFA4
:100CC80006F069EF06F06AEF06F0188E0C340C3265
:100CD8000B320A320932172AFFEF06F00D50095C71
:100CE8000E500A580F500B580C50800A116E1050B5
:100CF800800A1158D8B083EF06F085EF06F0B0EF00
:100D080006F009500D5C116E0A500E58126E0B5009
:100D18000F58136E0C501058146EFF0E1124096EE4
:100D2800FF0E12200A6EFF0E13200B6EFF0E14200A
:100D38000C6E800E151A186C1850D8A4A6EF06F081
:100D4800A8EF06F0B8EF06F0010E0926000E0A22F9
:100D58000B220C22B8EF06F00D50095E0E500A5A0D
:100D68000F500B5A10500C5A09500A100B100C1047
:100D7800D8A4C1EF06F0C3EF06F0F8EF06F018505C
:100D8800D8A4C9EF06F0CBEF06F0F8EF06F0000E96
:100D9800096E000E0A6E000E0B6E000E0C6E93EFBD
:100DA80007F0D89009360A360B360C3618AEDFEF46
:100DB80006F0E1EF06F0E2EF06F0098018A0E7EF91
:100DC80006F0E9EF06F0EDEF06F0D8801836EFEF01
:100DD80006F0D89018361750D8B4F5EF06F0F7EFAC
:100DE80006F0F8EF06F017060BAEFDEF06F0FFEF82
:100DF80006F0D5EF06F0000E166E18AE06EF07F0F7
:100E080008EF07F020EF07F018C011F07F0E111659
:100E1800D8B411EF07F013EF07F017EF07F0010E42
:100E2800166E20EF07F009A01CEF07F01EEF07F081
:100E380020EF07F013EF07F01650D8B426EF07F0AD
:100E480028EF07F053EF07F0010E0926000E0A22DB
:100E58000B220C220CA033EF07F035EF07F053EF0D
:100E680007F009C011F00AC012F00BC013F00CC053
:100E780014F01434143213321232113211C009F042
:100E880012C00AF013C00BF014C00CF01728D8B425
:100E980050EF07F052EF07F053EF07F0172A172823
:100EA800D8B459EF07F05BEF07F063EF07F017507E
:100EB800D8A461EF07F063EF07F075EF07F0000EB5
:100EC800096E000E0A6E000E0B6E000E0C6E1750A7
:100ED800D8A471EF07F073EF07F075EF07F0000E75
:100EE800156E17A07AEF07F07CEF07F07FEF07F099
:100EF8000B8E80EF07F00B9ED89017300C6E15AE56
:100F080088EF07F08AEF07F08BEF07F00C8E09C027
:100F180009F00AC00AF00BC00BF00CC00CF012006C
:100F28001A50800B236E1A501A24296E19AE9FEF9F
:100F380007F0A1EF07F0A2EF07F029802950D8B4F5
:100F4800A8EF07F0AAEF07F0BDEF07F02928D8A40B
:100F5800B0EF07F0B2EF07F0BAEF07F0000E176E28
:100F6800000E186E000E196E000E1A6E198EC5EF5F
:100F780007F0000E176E000E186E000E196E000EA8
:100F88001A6E1E50800B231A1E501E24286E1DAE8A
:100F9800D0EF07F0D2EF07F0D3EF07F02880285002
:100FA800D8B4D9EF07F0DBEF07F0EEEF07F0282809
:100FB800D8A4E1EF07F0E3EF07F0EBEF07F0000E3E
:100FC8001B6E000E1C6E000E1D6E000E1E6E1D8E1A
:100FD800F6EF07F0000E1B6E000E1C6E000E1D6E65
:100FE800000E1E6E2850D8B4FCEF07F0FEEF07F095
:100FF80006EF08F02950D8A404EF08F006EF08F02F
:1010080010EF08F0000E176E000E186E000E196E25
:10101800000E1A6EA8EF09F01D501702F3CF2EF03C
:10102800F4CF2FF02E50246E256A266A276A2F5097
:101038002A6E2B6A2C6A2D6A1C501802F3CF2EF0E8
:10104800F4CF2FF02E502426000E25222622272208
:101058002F502A26000E2B222C222D221B5019023B
:10106800F3CF2EF0F4CF2FF02E502426000E252299
:10107800262227222F502A26000E2B222C222D2210
:1010880026C027F025C026F024C025F0246A1B506E
:101098001802F3CF2EF0F4CF2FF02E5024262F5025
:1010A8002522000E2622000E27221C501702F3CFFD
:1010B8002EF0F4CF2FF02E5024262F502522000E8C
:1010C8002622000E272226C027F025C026F024C09D
:1010D80025F0246A1B501702F3CF2EF0F4CF2FF01F
:1010E8002E5024262F502522000E2622000E2722BD
:1010F8001D501802F3CF2EF0F4CF2FF02E502A26D1
:101108002F502B22000E2C22000E2D221C501902CB
:10111800F3CF2EF0F4CF2FF02E502A262F502B226B
:10112800000E2C22000E2D221D501902F3CF2EF096
:10113800F4CF2FF02E501F6E2F50206E216A226A96
:1011480021C022F020C021F01FC020F01F6A1F50CC
:101158002A2620502B2221502C2222502D2224C016
:101168001FF025C020F026C021F027C022F0190E5C
:10117800C3EF08F0D8902232213220321F32E82EF5
:10118800BEEF08F01F502A2620502B2221502C2277
:1011980022502D2226C027F025C026F024C025F095
:1011A800246A285029C01FF0206A1F26000E20221A
:1011B800820E1F242E6EFF0E20202F6EF9EF08F0EE
:1011C800D8902A362B362C362D3627AEEEEF08F07F
:1011D800F0EF08F0F1EF08F02A80D8902436253691
:1011E800263627362E06D8A02F062CAEFEEF08F09E
:1011F80000EF09F0E4EF08F0000E286E27AE07EFC5
:1012080009F009EF09F02DEF09F0FF0E24141F6E05
:10121800FF0E2514206EFF0E2614216E7F0E271454
:10122800226E1F50201021102210D8B41EEF09F092
:1012380020EF09F024EF09F0010E286E2DEF09F0D8
:101248002AA029EF09F02BEF09F02DEF09F020EF84
:1012580009F02850D8B433EF09F035EF09F059EF09
:1012680009F0010E2A26000E2B222C222D222DA059
:1012780040EF09F042EF09F059EF09F02AC01FF0DA
:101288002BC020F02CC021F02DC022F022342232B5
:10129800213220321F321FC02AF020C02BF021C07B
:1012A8002CF022C02DF02E4A2F2A2FBE64EF09F011
:1012B8002F5008E12E28D8A064EF09F066EF09F056
:1012C80070EF09F0000E2A6E000E2B6E800E2C6E49
:1012D8007F0E2D6E9EEF09F02FBE7DEF09F02F5087
:1012E80006E12E04D8B07BEF09F07DEF09F089EF15
:1012F80009F0000E2A6E000E2B6E000E2C6E000EEA
:101308002D6E000E236E9EEF09F02EC029F0FF0E01
:101318002A16FF0E2B167F0E2C16000E2D1629A04E
:1013280098EF09F09AEF09F09BEF09F02C8ED8900E
:1013380029302D6E23502D122AC017F02BC018F01B
:101348002CC019F02DC01AF012003350800B406EDB
:1013580033503324476E32AEB4EF09F0B6EF09F0DC
:10136800B7EF09F047804750D8B4BDEF09F0BFEF99
:1013780009F0D4EF09F04728D8A4C5EF09F0C7EF62
:1013880009F0CFEF09F0000E306E000E316E000E3E
:10139800326E000E336E328E000E336EDCEF09F0C3
:1013A800000E306E000E316E000E326E000E336E7F
:1013B8003750800B401A37503724486E36AEE7EF67
:1013C80009F0E9EF09F0EAEF09F048804850D8B48D
:1013D800F0EF09F0F2EF09F007EF0AF04828D8A477
:1013E800F8EF09F0FAEF09F002EF0AF0000E346E98
:1013F800000E356E000E366E000E376E368E000EFD
:10140800376E0FEF0AF0000E346E000E356E000EC8
:10141800366E000E376E3450351036103710D8A49B
:1014280018EF0AF01AEF0AF032EF0AF0000E306EE9
:10143800000E316E000E326E000E336E800E3212C8
:101448007F0E33124050331230C030F031C031F0CB
:1014580032C032F033C033F075EF0BF04750D8A4E8
:1014680038EF0AF03AEF0AF044EF0AF0000E306E57
:10147800000E316E000E326E000E336E75EF0BF0FB
:10148800485047C038F0396A385E000E395A7F0E26
:101498003824416E000E3920426E30C03CF031C015
:1014A8003DF032C03EF033C03FF0000E306E000E0B
:1014B800316E000E326E000E336E000E436E000E5B
:1014C800446E000E456E000E466E000E486EA5EF87
:1014D8000AF04850D8B473EF0AF075EF0AF08CEFB1
:1014E8000AF0D8903C363D363E363F36D8903036F6
:1014F80031363236333646AE84EF0AF086EF0AF0DC
:1015080087EF0AF03080D890433644364536463661
:1015180034503C5C35503D5836503E5837503F5853
:10152800D8A099EF0AF09BEF0AF0A4EF0AF0468CD6
:1015380034503C5E35503D5A36503E5A37503F5A2B
:10154800482A190E4864ABEF0AF0ADEF0AF06DEFC8
:101558000AF03C503D103E103F10D8B4B6EF0AF0E8
:10156800B8EF0AF0D0EF0AF04380D0EF0AF0D89035
:10157800303631363236333646AEC5EF0AF0C7EF6D
:101588000AF0C8EF0AF03080D89043364436453622
:1015980046364106D8A0420632AED5EF0AF0D7EF5C
:1015A8000AF0BBEF0AF0000E486E46AEDEEF0AF016
:1015B800E0EF0AF004EF0BF0FF0E4314386EFF0E55
:1015C8004414396EFF0E45143A6E7F0E46143B6E76
:1015D800385039103A103B10D8B4F5EF0AF0F7EF4D
:1015E8000AF0FBEF0AF0010E486E04EF0BF030A092
:1015F80000EF0BF002EF0BF004EF0BF0F7EF0AF03F
:101608004850D8B40AEF0BF00CEF0BF030EF0BF0AA
:10161800010E3026000E31223222332233A017EF7A
:101628000BF019EF0BF030EF0BF030C038F031C091
:1016380039F032C03AF033C03BF03B343B323A32F7
:101648003932383238C030F039C031F03AC032F06F
:101658003BC033F0414A422A42BE3BEF0BF04250B6
:1016680008E14128D8A03BEF0BF03DEF0BF048EF25
:101678000BF0000E426E4168000E306E000E316EA7
:10168800000E326E000E336E42BE55EF0BF0425024
:1016980006E14104D8B053EF0BF055EF0BF063EFC0
:1016A8000BF0000E426E000E416E000E306E000E02
:1016B800316E000E326E000E336E000E406E41C069
:1016C80047F047A06AEF0BF06CEF0BF06FEF0BF0F1
:1016D800328E70EF0BF0329ED8904730336E26EF83
:1016E8000AF012000001A551D96EDA6ADECFF6FFC2
:1016F800DDCFF7FF0800F550250AD8A486EF0BF0D8
:1017080088EF0BF0E8EF0CF0A551D96EDA6ADE2A03
:10171800000EDD22000ECE6F000ECD6FCDC052F050
:10172800CF69D069A5C00FF0A6C010F0F5EC11F094
:101738000FC0CDF010C0CEF00001CEBFA8EF0BF067
:10174800A6EF0BF0ADEF0BF05280CD6DCE1FD8B0E9
:10175800CE2BA551D96EDA6ADECFF6FFDDCFF7FFC3
:101768000800F5502E0AD8A4BCEF0BF0BEEF0BF022
:10177800CEEF0BF0A551D96EDA6ADE2A000EDD2213
:10178800A5C00FF0A6C010F0F5EC11F00FC0CFF017
:1017980010C0D0F00001A551D96EDA6ADECFAEF0E4
:1017A800DDCFAFF0AEC0F6FFAFC0F7FF0800F550D1
:1017B800750AD8A4E2EF0BF0E4EF0BF021EF0CF080
:1017C800A651D96EDA6A020EDF26DF5CD96EDA6AB4
:1017D800DECFA9F0DECFAAF0010EAE25A76F000E6E
:1017E800AF21A86FA551D96EDA6AA7C0DEFFA8C0DD
:1017F800DDFF0BEF0CF0A3C024F0A4C025F0A9C0B6
:1018080026F0AAC027F017EC11F0FBEF0CF0AEC0E1
:10181800F6FFAFC0F7FF0800F550A76FA86BA851F7
:10182800000AD8B41AEF0CF021EF0CF0A751750A92
:10183800D8B4FFEF0BF021EF0CF0A551D96EDA6A9E
:10184800DECFAEF0DDCFAFF0AEC0F6FFAFC0F7FF32
:101858000800F5CFADF03DEF0CF0AE4BAF2B56EFD7
:101868000CF06C0EAD6F56EF0CF0000EAD6F56EF2E
:101878000CF0AD51A76FA86BA851000AD8B447EF78
:101888000CF039EF0CF0A7514C0AD8B431EF0CF03A
:101898002A0AD8B435EF0CF00A0AD8B431EF0CF0A4
:1018A80039EF0CF0AEC0F6FFAFC0F7FF0800F550F7
:1018B800660AD8A462EF0CF064EF0CF0DFEF0CF0CE
:1018C8008EEF0CF0A651D96EDA6ADFCFA7F0040EBE
:1018D800DF26A751D96EDA6ADECFA9F0DECFAAF0EB
:1018E800DECFABF0DECFACF0A3EF0CF0A651D96E93
:1018F800DA6ADFCFA7F0040EDF26A751D96EDA6ABD
:10190800DECFA9F0DECFAAF0DECFABF0DECFACF0B1
:10191800A3EF0CF0AD51A76FA86BA851000AD8B47B
:1019280098EF0CF0A3EF0CF0A7514C0AD8B47AEF5B
:101938000CF0200AD8B466EF0CF0A3EF0CF0010EFF
:10194800AE25A76F000EAF21A86FA551D96EDA6A30
:10195800A7C0DEFFA8C0DDFFC9EF0CF0A3C070F080
:10196800A4C071F0A9C072F0AAC073F0ABC074F043
:10197800ACC075F0AEC0F6FFAFC0F7FF0800F5CFFA
:1019880076F038EC00F0FBEF0CF0AEC0F6FFAFC01D
:10199800F7FF0800F550A76FA86BA851000AD8B444
:1019A800D8EF0CF0DFEF0CF0A751660AD8B4B2EF0D
:1019B8000CF0DFEF0CF00001A551D96EDA6ADE2ACF
:1019C800000EDD22FBEF0CF0A551D96EDA6ADECFEE
:1019D800F6FFDDCFF7FF0800F5500B6E0C6AA3C0C9
:1019E8000DF0A4C00EF090EC11F0DFEF0CF0120037
:1019F800C5C06CF0C6C06DF0C7C06EF0C8C06FF04F
:101A080049C06CF04AC06DF04BC06EF04CC06FF02E
:101A1800810E0001606FFF0E616F6CC062F06DC0D7
:101A280063F06EC064F06FC065F0180E21EF0DF022
:101A3800D8906533643363336233E82E1CEF0DF0BE
:101A4800625160256A6F000E61216B6F6BBF36EFC4
:101A58000DF06B5109E1170E6A5DD8A036EF0DF055
:101A680038EF0DF042EF0DF049C049F04AC04AF096
:101A78004BC04BF04CC04CF006EF0EF06BBF47EF7D
:101A88000DF049EF0DF0BAEF0DF06AC060F0FF0EEF
:101A9800616FFF0E626F7F0E636F000E646F606789
:101AA80058EF0DF060EF0DF0643564336333623343
:101AB8006133602F53EF0DF061C066F062C067F0CC
:101AC80063C068F064C069F0000166516C15606F0E
:101AD80067516D15616F68516E15626F69516F15A9
:101AE800636F6051611162116311D8A47EEF0DF02C
:101AF80080EF0DF082EF0DF038EF0DF06CC060F064
:101B08006DC061F06EC062F06FC063F0200E92EF9E
:101B18000DF0D8906333623361336033E82E8DEF74
:101B28000DF06051611162116311D8B49EEF0DF090
:101B3800A0EF0DF0A8EF0DF066516C2767516D23EB
:101B480068516E2369516F23661D606F671D616F51
:101B5800681D626F691D636F60516C1761516D1765
:101B680062516E1763516F17FEEF0DF06CC060F095
:101B78006DC061F06EC062F06FC063F0200ECAEFF6
:101B88000DF0D8906333623361336033E82EC5EFCC
:101B98000DF06051611162116311D8A4D6EF0DF0F8
:101BA800D8EF0DF0E2EF0DF0000E6C6F000E6D6FC8
:101BB800000E6E6F000E6F6FFEEF0DF0D8906C3553
:101BC800606F6D35616F6E35626F6F35636F605131
:101BD800611162116311D8B4F4EF0DF0F6EF0DF056
:101BE800FEEF0DF0000E6C6F000E6D6F800E6E6FC5
:101BF800BF0E6F6F6CC049F06DC04AF06EC04BF0FD
:101C08006FC04CF01200116E1150D8B40EEF0EF0E8
:101C180010EF0EF032EF0EF00CBE17EF0EF015EFCE
:101C28000EF032EF0EF009C00DF00AC00EF00BC036
:101C38000FF00CC010F00D1E0E1E0F1E101E0D2AE8
:101C4800000E0E220F2210220DC013F00EC014F049
:101C58000FC015F010C016F03AEF0EF009C013F0DF
:101C68000AC014F00BC015F00CC016F009500A1089
:101C78000B100C10D8A443EF0EF045EF0EF04FEF09
:101C88000EF0000E096E000E0A6E000E0B6E000EAE
:101C98000C6EE0EF0EF0960E126E59EF0EF0122A4F
:101CA800D8901632153214321332000E13140D6EFA
:101CB800000E14140E6E000E15140F6EFE0E161480
:101CC800106E0D500E100F101010D8A46EEF0EF0FD
:101CD80070EF0EF053EF0EF07EEF0EF0122A010EA9
:101CE8001326000E142215221622D8901632153209
:101CF80014321332000E13140D6E000E14140E6EEF
:101D0800000E15140F6EFF0E1614106E0D500E10E7
:101D18000F101010D8A493EF0EF095EF0EF072EF9D
:101D28000EF09DEF0EF01206D890133614361536C5
:101D3800163615BEA2EF0EF0A4EF0EF0ACEF0EF0C3
:101D4800020E1260AAEF0EF0ACEF0EF097EF0EF055
:101D580012B0B1EF0EF0B3EF0EF0B4EF0EF0159E27
:101D6800D890123212C00DF00E6A0F6A106A0DC0B8
:101D780010F00F6A0E6A0D6A0D5013120E501412ED
:101D88000F501512105016121150D8B4CEEF0EF095
:101D9800D0EF0EF0D8EF0EF00CBED7EF0EF0D5EF67
:101DA8000EF0D8EF0EF0168E13C009F014C00AF02A
:101DB80015C00BF016C00CF012004BEC15F0F28EAB
:101DC800F28CAC0E096E280E0A6E9BEC15F0C68AD2
:101DD800898AA10E0001B76F7F0EB86F2EEC15F03F
:101DE800000E0001C36FF3EC14F00001C46F2F0E56
:101DF800C46501EF0FF003EF0FF00BEF0FF0390E92
:101E0800C46509EF0FF00BEF0FF014EF0FF00D0E94
:101E1800C419D8A412EF0FF014EF0FF0F7EF0EF07B
:101E28002F0EC4651AEF0FF01CEF0FF033EF0FF011
:101E38003A0EC46122EF0FF024EF0FF033EF0FF0EA
:101E4800C3510A0DF350C425D00FC36FC4C00BF0A3
:101E58000C6A000E0D6E000E0E6E90EC11F00D0E59
:101E68000001C419D8B43BEF0FF03DEF0FF045EF78
:101E78000FF0190EC36543EF0FF045EF0FF0F7EFC2
:101E88000EF0000E1B6E000E1C6EA00E1D6E400E96
:101E98001E6EC351096E0A6A0B6A0C6A010E07ECC2
:101EA8000EF009C017F00AC018F00BC019F00CC0EA
:101EB8001AF094EC07F017C030F018C031F019C0D0
:101EC80032F01AC033F0000E346E000E356E800EFC
:101ED800366E430E376EA9EC09F030C0BFF031C042
:101EE800C0F032C0C1F033C0C2F0D70E0001B76FE6
:101EF8007F0EB86FC3C0B9F0BA6BBFC0BBF0C0C02B
:101F0800BCF0C1C0BDF0C2C0BEF02EEC15F000019F
:101F1800C35170EC15F0EDEF0EF036EF00F00B3416
:101F28000C34126E1250D8A49CEF0FF09EEF0FF0F5
:101F3800A8EF0FF0000E096E000E0A6E000E0B6E71
:101F4800000E0C6E15EF10F009C00DF00AC00EF06F
:101F58000BC00FF00CC010F0200EB8EF0FF0D890A7
:101F680010320F320E320D32E82EB3EF0FF00D5053
:101F7800116E0B8EFF0E0916FF0E0A16FF0E0B16BA
:101F8800000E0C16960E125E12BECFEF0FF0CDEFBC
:101F98000FF0E5EF0FF01250800A970FD8B0D7EF87
:101FA8000FF0D9EF0FF0DBEF0FF09EEF0FF0D890A6
:101FB8000C320B320A320932123EDBEF0FF0FDEF22
:101FC8000FF01F0E1264EBEF0FF0EDEF0FF0F5EFCF
:101FD8000FF09EEF0FF0D89009360A360B360C3604
:101FE80012061250D8A4FBEF0FF0FDEF0FF0EFEF41
:101FF8000FF01150D8B403EF10F005EF10F00DEF0B
:1020080010F00C1E0B1E0A1E096C000E0A220B2271
:102018000C2209C009F00AC00AF00BC00BF00CC072
:102028000CF01200000E3014386E000E3114396EA8
:10203800800E32143A6E7F0E33143B6E38503910CE
:102048003A103B10D8A42BEF10F02DEF10F035EF1D
:1020580010F0000E306E000E316E000E326E000E63
:10206800336E000E3414386E000E3514396E800E3F
:1020780036143A6E7F0E37143B6E385039103A10CA
:102088003B10D8A44AEF10F04CEF10F054EF10F0CA
:10209800000E346E000E356E000E366E000E376E72
:1020A80033AE59EF10F05BEF10F064EF10F0306CC6
:1020B800311ED8B0312A321ED8B0322A800E33569B
:1020C80037AE69EF10F06BEF10F074EF10F0346C6E
:1020D800351ED8B0352A361ED8B0362A800E375667
:1020E800000E301A000E311A000E321A800E331A02
:1020F800000E341A000E351A000E361A800E371AE2
:102108003450305C35503158365032583750335887
:10211800D8B091EF10F093EF10F096EF10F0D89040
:1021280097EF10F0D8801200C9C013F0CAC014F09D
:10213800CBC015F0CCC016F009C013F00AC014F0DB
:102148000BC015F00CC016F013C00DF014C00EF043
:1021580015C00FF016C010F0180EB8EF10F0D89098
:1021680010320F320E320D32E82EB3EF10F00D5050
:10217800116E126A11501210D8A4C5EF10F0C7EFF3
:1021880010F0E7EF10F0D89013340D6E14340E6E83
:1021980015340F6E1634106E0D500E100F101010EF
:1021A800D8A4D9EF10F0DBEF10F0E1EF10F0000E3B
:1021B8000A6E020E096E16EF11F0000E0A6E030E7B
:1021C800096E16EF11F011281210D8A4EEEF10F0D6
:1021D800F0EF10F012EF11F013C00DF014C00EF074
:1021E80015C00FF016C010F0090ED8900D360E3637
:1021F8000F361036E82EF9EF10F00D500E100F10B4
:102208001010D8B40AEF11F00DEF11F0010E0EEF17
:1022180011F0000E096E0A6A16EF11F0000E0A6E30
:10222800040E096E12000001D0BF1FEF11F01DEF60
:1022380011F025EF11F0000E2B6E010E2A6E29EF1A
:1022480011F0CFC02AF0D0C02BF0CDC028F0CEC0FE
:1022580029F0000E2D6E4F0E2C6E000E01014F6FEF
:1022680060EF11F02C06D8A02D06000E2C24D96E94
:10227800010E2D20DA6E26C009F027C00AF0000EE4
:102288000C6E0A0E0B6E2AEC13F00950300FDF6E3D
:102298002A06D8A02B062806D8A0290626C009F0A9
:1022A80027C00AF0000E0C6E0A0E0B6EF0EC12F04E
:1022B80009C026F00AC027F02C502D10D8B467EFBB
:1022C80011F069EF11F07FEF11F026502710D8A414
:1022D80070EF11F072EF11F036EF11F02BBE7FEFB7
:1022E80011F02B5006E12A04D8B07DEF11F07FEFF2
:1022F80011F036EF11F024C01BF025C01CF0000EC1
:102308002C241D6E010E2D201E6E28C01FF029C022
:1023180020F0A1EC12F012000D500E10D8B497EF77
:1023280011F099EF11F0A2EF11F00D500E10D8A492
:10233800A0EF11F0A2EF11F0A7EF11F00B5096ECFF
:1023480015F0F4EF11F020EE0AF00D50D9260E50DA
:10235800DA22DE50DE10D8B4B4EF11F0B6EF11F087
:10236800D1EF11F020EE0AF00D50D9260E50DA22E6
:1023780010EE03F00D50E1260E50E222DE50E65C2E
:10238800E650800A136EDE50800A1358D8B0CFEF9B
:1023980011F0D1EF11F0F4EF11F020EE03F00D5031
:1023A800D9260E50DA22DECF0FF0DDCF10F00DC0A7
:1023B800D9FF0EC0DAFFDECF11F0DDCF12F00F50DB
:1023C8001124D96E10501220DA6E0BC0DFFF20EEF8
:1023D80003F00D50D9260E50DA22DE2A000EDD2237
:1023E8001200000E136E000E126E0F50D96EDA6ACC
:1023F800DECFF6FFDDCFF7FF0800F5502A0AD8A494
:1024080008EF12F00AEF12F034EF12F00F50D96E05
:10241800DA6ADE2A000EDD221050D96EDA6A020E60
:10242800DF26DF5CD96EDA6ADECF12F0DECF13F07A
:1024380047EF12F012C009F013C00AF0000E0C6E3C
:102448000A0E0B6E1BEC15F011500924126E000ECB
:102458000A20136E0F50D96EDA6ADE2A000EDD22CA
:102468000F50D96EDA6ADECFF6FFDDCFF7FF08002E
:10247800F550D00F116E090E116445EF12F047EFB9
:1024880012F01EEF12F012C00FF013C010F012007D
:10249800000E0914116E000E0A14126E800E0B1431
:1024A800136E7F0E0C14146E1150121013101410AA
:1024B800D8A461EF12F063EF12F06BEF12F0000E88
:1024C800096E000E0A6E000E0B6E000E0C6E000EEA
:1024D8000D14116E000E0E14126E800E0F14136E72
:1024E8007F0E1014146E1150121013101410D8A46B
:1024F80080EF12F082EF12F08AEF12F0000E0D6EEC
:10250800000E0E6E000E0F6E000E106E0D500918A4
:102518000FE10E500A180CE10F500B1809E110508A
:102528000C18D8B49AEF12F09CEF12F09FEF12F04B
:10253800D890A0EF12F0D880120052A0A6EF12F0A7
:10254800A8EF12F0B2EF12F01DC014F01EC015F083
:102558001BC016F01CC017F0F7EC13F020BEB9EF43
:1025680012F0B7EF12F0BDEF12F0000E206E000E61
:102578001F6E000E236E000E226ECFEF12F0000EBB
:102588000C6E200E0B6E1BC00DF01CC00EF090ECF4
:1025980011F0224A232A1F50225C2350800A216E00
:1025A8002050800A2158D8A0DCEF12F0DEEF12F09C
:1025B800C3EF12F052B0E3EF12F0E5EF12F0EFEFD5
:1025C80012F01DC014F01EC015F01BC016F01CC080
:1025D80017F0F7EC13F01200000E0E6E000E0D6EE1
:1025E8000B500C10D8B4FBEF12F0FDEF12F025EFF2
:1025F80013F0010E0F6E05EF13F0D8900B360C3662
:102608000F2A0CAE0AEF13F00CEF13F001EF13F0E2
:10261800D8900D360E360B50095C0C500A58D8A0CD
:1026280018EF13F01AEF13F01FEF13F00B50095EB9
:102638000C500A5A0D80D8900C320B320F2E0CEF2A
:1026480013F00DC009F00EC00AF012000B500C1068
:10265800D8B431EF13F033EF13F057EF13F0010E46
:102668000D6E3BEF13F0D8900B360C360D2A0CAEDE
:1026780040EF13F042EF13F037EF13F00B50095C03
:102688000C500A58D8A04BEF13F04DEF13F051EF50
:1026980013F00B50095E0C500A5AD8900C320B32CA
:1026A8000D2E42EF13F009C009F00AC00AF012001B
:1026B8000CBE61EF13F063EF13F06DEF13F009C078
:1026C80009F00AC00AF00BC00BF00CC00CF086EF42
:1026D80013F009C00DF00AC00EF00BC00FF00CC0CB
:1026E80010F00D1E0E1E0F1E101E0D2A000E0E22BB
:1026F8000F2210220DC009F00EC00AF00FC00BF017
:1027080010C00CF012000BC012F00CC013F009C07E
:1027180010F00AC011F0A1EF13F012C0D9FF13C0D6
:10272800DAFFDF500F6E124A132A10C0D9FF11C00A
:10273800DAFF0FC0DFFF104A112A0D06D8A00E06D7
:102748000D2806E10E28D8A4ACEF13F0AEEF13F075
:1027580091EF13F01200B2C0B5F0B3C0B6F0C0EFFD
:1027680013F0B0C0A3F0B1C0A4F0B50E0001A56F7E
:10277800B4C0A6F076EC0BF0B5C0F6FFB6C0F7FF14
:102788000800F5500009D8A4CCEF13F0CEEF13F0F1
:10279800B5EF13F0000E0001B16F000EB06F12001C
:1027A800000E341A000E351A000E361A800E371A2B
:1027B80030C009F031C00AF032C00BF033C00CF061
:1027C80034C00DF035C00EF036C00FF037C010F031
:1027D80034EC05F009C030F00AC031F00BC032F01B
:1027E8000CC033F01200000E1A6E000E196E08EFBE
:1027F80014F018C00BF00C6A16C00DF017C00EF0DC
:1028080090EC11F0194A1A2A19501424D96E1A504A
:102818001520DA6EDF50186E1850D8A416EF14F091
:1028280018EF14F0FDEF13F01200080EA76E900ECB
:10283800AB6E240EAC6E080EAF6E020E7D6E000EEF
:10284800096E000E0A6EA5EC15F0000E096E000E5A
:102858000A6EA0EC15F0000E096E000E0A6EAAECC6
:1028680015F0000E536E12009E9050C001F051C03A
:1028780002F007EC15F055505610D8B446EF14F096
:1028880048EF14F055EF14F002D855EF14F0050096
:10289800FA6E5550FD6E5650FE6EF850FF6EFA50A7
:1028A80012001200340E026E560E016E07EC15F07F
:1028B800610E5424F66EF76A7F0EF7220800F55071
:1028C8007AEC15F0542A3C0E5418D8A46EEF14F084
:1028D80070EF14F072EF14F0000E546E120009C07D
:1028E8000DF00AC00EF00BC0F6FF0CC0F7FF0B4A44
:1028F8000C2A0DC0D9FF0EC0DAFF0D4A0E2A0800B7
:10290800F5CFDFFFDF50D8A48CEF14F08EEF14F072
:1029180077EF14F0120009500A100B100C10D8B4FD
:1029280098EF14F09AEF14F0A2EF14F0000E091AC1
:10293800000E0A1A000E0B1A800E0C1A09C009F0B4
:102948000AC00AF00BC00BF00CC00CF01200000E0D
:10295800AA6E000ECF6E000ECE6E9E90CE50CFCFD8
:102968000BF00C6A0BC00CF00B6A0B10506E0C507D
:10297800516E9D80620E096E2B0E0A6E9BEC15F04F
:10298800010ECD6E120001EE00F0500EEE6AE80660
:10299800FDE100EEC5F00C0EEE6AE806FDE1546AB2
:1029A800536A526A516A506A57905792000EF86EED
:1029B8000001E1EF0EF0000E896E000E8A6E000E27
:1029C8008B6ECF0E926E9368970E946E1F0E0F014A
:1029D8005D6F070E5C6F000E5B6FF18E12009EAA92
:1029E800F8EF14F0FAEF14F0F3EF14F0000E536E52
:1029F800ABA201EF15F003EF15F005EF15F0AB985A
:102A0800AB88AE501200CDA40CEF15F00EEF15F008
:102A180016EF15F0CD900250CF6E01C0CEFFCD80DD
:102A28001AEF15F00250CF6E01C0CEFF1200095008
:102A38000B02F3CF0DF0F4CF0EF009500C02F35057
:102A48000E260A500B02F3500E260DC009F00EC0D8
:102A58000AF01200B90E4F6E000E0001B06F000EA2
:102A6800B16FB7C0B2F0B8C0B3F04F0EB46FAFECEF
:102A780013F01200096E09C0C9FF9EA646EF15F0B3
:102A880048EF15F041EF15F09E96C9501200AFECD3
:102A980015F084EC15F0DFEC14F08DEC15F0ABECD0
:102AA80014F019EC14F01200016E01C0C9FF9EA6C3
:102AB80060EF15F062EF15F05BEF15F09E96C950C8
:102AC8001200096E9EA86BEF15F06DEF15F066EF1A
:102AD80015F009C0ADFF12000A6E899A110E3EEC7E
:102AE80015F00A503EEC15F0898A1200026E899A98
:102AF800110E58EC15F0025058EC15F0898A1200A6
:102B0800400EC76E020EC66E010EC86E9496C69A27
:102B18001200600ED36E000ED26E000E9B6E000E79
:102B28009A6E12000A6E0A5065EC15F0120009C080
:102B380055F00AC056F0120009C0D3F00AC0D4F00C
:102B4800120009C0D5F00AC0D6F0120009C0D1F0B1
:0C2B58000AC0D2F01200D09E1200120041
:107EE8000009111A222B333C444D555E666F77808A
:107EF800889199A2AAB3BBC4CCD5DDE6EEF7FFF70B
:107F0800EEE6DDD5CCC4BBB3AAA299918880776F81
:107F1800665E564D443C332B221A110900000000BE
:107F28000000000000000000000000000000000049
:107F38000000000000000000000000FFFFFFFFFF3E
:107F4800FFFFFFFFFFFFFFFFFFFFFFFFFFFFFFFF39
:107F5800FFFFFFFFFFFFFFFFFFFEFEFCF9F4EEE768
:107F6800DED5CABFB3A79A8D7F7265584C40352AB3
:107F78002118110B060301000103060B1118212A11
:107F880035404C586572808D9AA7B3BFCAD5DEE7D5
:107F9800EEF4F9FCFE024001000A0D456E747265AC
:107FA8007220756E652076616C65757220656E74D9
:107FB80072652030206574203235352C2073756940
:107FC800766965206465205B456E7465725D000A9C
:107FD8000D56616C657572203D2025752074656E9F
:107FE80073696F6E203D2025332E32662000696E3E
:077FF80066006E616E0000DF
:020000040020DA
:08000000FFFFFFFFFFFFFFFF00
:020000040030CA
:0E00000015027F50FF8991FF0FC00FE00F40E7
:00000001FF
